:200000000C940108FFFFFFFFC5C5FFFFFFFFFFFFFFFFFFFFFFFFFFFFFFFFFFFFFFFFFFFFC7
:20002000FFFFFFFFFFFFFFFFFFFFFFFFFFFFFFFFFFFFFFFFD6C0FFFF8BC2FFFFFFFFFFFFF9
:20004000FFFFFFFFFFFFFFFFFFFFFFFFFFFFFFFFFFFFFFFFFFFFFFFFFFFFFFFFFFFFFFFFC0
:20006000FFFFFFFFFFFFFFFFFFFFFFFFFFFFFFFFFFFFFFFFFFFFFFFFFFFFFFFFFFFFFFFFA0
:20008000FFFFFFFFFFFFFFFFFFFFFFFFFFFFFFFFFFFFFFFFFFFFFFFFFFFFFFFFFFFFFFFF80
:2000A000FFFFFFFFFFFFFFFFFFFFFFFFADC5FFFFE4C5FFFFFFFFFFFFFFFFFFFFFFFFFFFF41
:2000C000FFFFFFFFFFFFFFFFFFFFFFFFFFFFFFFFFFFFFFFFFFFFFFFFFFFFFFFFFFFFFFFF40
:2000E000FFFFFFFFFFFFFFFFFFFFFFFFFFFFFFFFFFFFFFFFFFFFFFFFFFFFFFFFFFFFFFFF20
:200100009CC4FFFFFFFFFFFFFFFFFFFFFFFFFFFFFFFFFFFFFFFFFFFFFFFFFFFFFFFFFFFF9D
:20012000FFFFFFFFFFFFFFFFFFFFFFFFFFFFFFFFFFFFFFFFFFFFFFFFFFFFFFFFFFFFFFFFDF
:20014000FFFFFFFFFFFFFFFFFFFFFFFFFFFFFFFFFFFFFFFFFFFFFFFFFFFFFFFFFFFFFFFFBF
:2001600099C6FFFF6DC6FFFFFFFFFFFFFFFFFFFFFFFFFFFFFFFFFFFFFFFFFFFFFFFFFFFF09
:20018000FFFFFFFFFFFFFFFFFFFFFFFFFFFFFFFFFFFFFFFFFFFFFFFFFFFFFFFFFFFFFFFF7F
:2001A0001BC6FFFF7EC4FFFFFFFFFFFFFFFFFFFFFFFFFFFFFFFFFFFFFFFFFFFFFFFFFFFF38
:2001C000FFFFFFFFFFFFFFFFFFFFFFFFFFFFFFFFFFFFFFFFFFFFFFFFFFFFFFFFD8C6FFFF9F
:2001E000AAC6FF93FFB70F931F932F93CF93DF93EF93FF93C3E6D1E208811127053008F0FF
:20020000B2C0ECE9F5E2000FE00FF11F159124910981021708F0A7C0010F000F1127E6EA2E
:20022000F5E2E00FF11F05911491F8010994EA81FB810591009387040C83FB83EA8301E021
:2002400009837CC1EA81FB810591009387041C81003079F41F3F69F40D81023E39F002E06C
:200260000983EA83FB8302EE0D8368C103E0098365C104911395101729F431960C83FB8374
:20028000EA835CC112E01983FACF0D810093860400E0098353C102E00093AC060AE00093AE
:2002A000A90607D460C00BEE0093870401E0098345C100E0009383040A81039500938604D0
:2002C00008E60093810402E0098338C1009187040C8303E012E01093830409832FC10091FA
:2002E00087040D8304E0F6CF009187040E8304E0009383040A810093860408E500938104E2
:2003000005E009831BC11DE206E010938704098315C11C8107E0F9CF1D8108E0F6CF1E81E5
:200320001370146109E0F1CF0A81009386040AE0098304C101E3009387040BE00983FEC002
:2003400000E81A8111FD00E9009387040CE00983F5C00A81023E39F002EE009386040A834A
:2003600000270983EBC000270883098308E40093810403E000938304E1C00A8100230AF493
:2003800001951FE30A9521F01AE40A9509F014E31093870401E00983D1C00A8112E10023BB
:2003A0000AF413951093870402E00983C7C001EF0093870401E00983C1C005EE0093870467
:2003C00005E0098302E00B83B9C00CE10093870403E00983B3C0009162211BE0067009F058
:2003E00013E01093870404E00983A8C00091622118E0067009F010E01093870405E00983FA
:2004000006E00B839BC004E00093830408E50A81009386040B81098391C011E310938704EF
:2004200007E009838BC02A8110E10FE0223E11F008E010E0109387040B8305E009837EC0CF
:200440001BE61093870409E0098378C01885109387040AE0098372C019851F7710938704EB
:200460000BE00B8305E0098369C01FE6109387040CE0098363C01C81109387040DE0098357
:200480005DC01D811F77109387040EE00B8305E0098354C013E7109387040FE009834EC02B
:2004A0001E811093870400E1098348C01F8110681093870401E10B8305E009833FC016EFCF
:2004C0001093870402E1098339C012E01093870403E1098333C00A81023E39F002EE00938C
:2004E00086040A830027098329C003E019E10093592110935A2108E40093810403E00093C7
:20050000830400270883098319C001EF0093870401E0098313C005E60093870402E0098378
:200520000DC00A81023E19F404E01127E0CF02EE009386040A830027098300C0FF91EF912E
:20054000DF91CF912F911F910F91FFBFFF911895FF93FFB7FF93EF93DF93CF939F938F933C
:200560005F934F933F932F931F930F931F920F92E9E5F1E20081002309F4A5C00A9509F42A
:200580009BC00A9541F00A9509F10A9581F10A9509F06BC054C000270083A3D2109163216B
:2005A00003E00093632100EE0093652100270093662102E1112339F4002710EE1093860463
:2005C00018E510938104009364217DC011811A9509F078C00027008304E000936321002763
:2005E0000093642100EE00936521F0D36CC0F8941091480601E000934C0602E000934906E8
:20060000789422271C7081F421E001E00093632100270093642100EE00936521D7D3039800
:200620000BE4018305E001C000270083F894009162210E70022B00936221789444C01181F4
:200640001A9509F03FC00091680605FF3CC00281002329F0053041F40381002329F400E81F
:200660000093250606E000832EC02FE7F8940E94920F78940F70033091F402E000938C0636
:2006800009E00093890628E110916221106100918821F8940E94650F789400E808C0F8948D
:2006A00000915721006800935721789400E4009306060027008307C011811A9519F402E08E
:2006C000008301C0118332960081818192810023D9F10130C9F40197A9F50091AD21002351
:2006E00099F1F894009157210770013049F404E000938506789488EE93E002E0008322C0B8
:200700007894002700831EC00230F9F40091572103FD0CC00197B1F404E0F8940093860685
:20072000019AD7D27894002700830CC00091880604FFF6CF88EE93E01AD30FE1009385210D
:2007400003E000838183928346C0033081F40197C9F700E10093650602E00093660604E070
:20076000008388E893E102E000936506EBCF043009F50091680605FF18C001E000936C0685
:2007800002E00093690605E000830AE0018300270283F894009157210061009357210E9450
:2007A000EC0F0E94C30F789416C0019709F0CACFF894B6CF053079F483819481019709F061
:2007C000C1CF0091240607FF06C000270083F8D000E1009326068381948101E0843F90079C
:2007E00061F4F894009B03C001E000930706029B03C000E2009307067894019709F07FC07B
:20080000F894009B03C001E000930706029B03C000E20093070678940091852104FF2BC05A
:200820000039B8F029F408E40E949C1208E421C000270093A4090093A3090091992110911F
:200840009A21106823E1F8940E94650F789400E810C00A95013139F0003159F404E40E94F9
:200860009C1208E906C0009385210DE00E949C1202C00093852188EE93E01FEF2FEF00E5A8
:200880001FEF2FEF0E943310112742FF02C016E007C041FF02C014E003C040FF01C012E0A4
:2008A000F89400915721202F2670212781F0097F012B00935721019909C0163011F4019AFD
:2008C00004C0112311F0009A01C003D27894487F24E1429F012D11275203000D111D25819A
:2008E00036810217130759F005831683F8942091572124FF03C025E10E94650F78948383DB
:200900009483059B3FC000916221017009F43AC0C3E9D1E2EDE6F1E22227F8942395099179
:200920001991819191910817190719F42330B0F327C00AF4219500918104007311F502E08B
:20094000009363210027009364212093652100EE0093860408E50093810422237AF40197AD
:200960009293829320D010918821011751F000938821112728E10E94650F03C00196F0CFFE
:20098000059878940F901F900F911F912F913F914F915F918F919F91CF91DF91EF91FF9180
:2009A000FFBFFF911895EDE6F1E23081218114810581131B020B039505950B5F0F70089535
:2009C0002F931F930F93CF93DF93EF9320E1C3E9D1E209911991233141F4E0918521E4FD86
:2009E00003C0E07C1E2B01C01064F8940E94650F78942395253169F7222709911991F89425
:200A00000E94650F789423952730B9F70991199127E1F8940E94650F789400916021109148
:200A2000612125E1F8940E94650F7894EF91DF91CF910F911F912F910895FF93FFB70F9399
:200A40000091680605FBF8940091572104F90093572178948EF400E80093260603991DC04C
:200A6000F89405E00093592104E600935A2104E000935B21789411C001E00093890600E14C
:200A800000932506002700935821009157210F770093572100EC009305060F91FFBFFF9153
:200AA0001895FF93FFB70F9304D00F91FFBFFF911895039A00270093490601E00093890687
:200AC00000E80093050600932606009162210E700093622104E600935A2101E00093592143
:200AE00008950F921F922F933F93CF93DF93EF93FF93C3E9D1E2EDE6F1E2099119910193AE
:200B00001193C939D1F7C650E7E6F1E209911991C93909F41395000F111F000F111F0193B4
:200B20001193C93999F73FDF0093882105980091622103FD18C001701091A80615FD05C005
:200B4000026010E11093460606C014FD04C0046010E1109345061091622100936221102704
:200B6000167009F40EC010E201FF04C010930606029807C002FF02C0029A03C0109305068E
:200B80000298FF91EF91DF91CF913F912F911F900F900895FF93FFB70F931F932F933F9330
:200BA0004F930091480633270C7009F00EC03395039B0BC001E0009363210027009364216F
:200BC00000EE0093652102D10398009162210E70032B0093622125E0332349F401E00093BE
:200BE000890600E8009305060093260622272093592104E600935A214F913F912F911F9193
:200C00000F91FFBFFF911895FF93FFB7F8940F931F932F9311270091880601FB10F903FBF5
:200C200013F902FB00915721202F067F012B00935721212720FF13C010FD06C004E0009313
:200C40008606019A52D012C001E000935B2100ED00935C2107E000935D21019807C023FF12
:200C600006C013FD04C041D016F4019A32D02F911F910F91FFBFFF911895FF93FFB70F932D
:200C80001F932F932FE70E94920F13FF0DC012FD03C00AE0112702C002E018E00093A906D6
:200CA0001093622106DF0FC011FF05C02091062021602093062002950770109158211A7F93
:200CC000012B009358212F911F910F91FFBFFF911895019905C0009801E0009305060895BE
:200CE00001E00093060600980895002700935C2100935D2100935B210093062000938521F6
:200D0000009359210093622101E00093890602E00093A906002700934906009369060093EB
:200D2000A4090093A30900E80093220600E10093250600270093C00800EB0093420609E054
:200D40000093620600E10093660600E30093A206009157210F7E0093572100EA0093050671
:200D600008E40093810401E0009384040895CF93DF9300E80093250600E80093210600EBCF
:200D80000093410601E00093650609E00093610608E10093A40900E10093A30901ED0093ED
:200DA000C00801E0009384040027C3E6D1E2099309930EEF099305E2099300B1077C00B9AB
:200DC00000EE098303D0DF91CF9108950093860408E5009381040895FF93FFB7FF93EF933E
:200DE000DF932F931F930F93E4E0F0E2DD270091A80601FD1BC0D395129102910117A9F06A
:200E00002091A10B25FF0CC011270395E7E4F0E2E00FF11F10811093A00BE2E0F0E2008323
:200E20002091A30B22602093A30B3296D0830F911F912F91DF91EF91FF91FFBFFF911895CA
:200E4000FF93FFB7FF93EF933F932F931F930F93E3E8F1E201911081011731F43091A309E3
:200E60003C7F3093A3090DC003950F701127E3E7F1E2E00FF11F10811093A009E3E8F1E215
:200E800000830F911F912F913F91EF91FF91FFBFFF911895FF93FFB7FF93EF933F932F93F4
:200EA0001F930F933091A1090091A00934FD3AC03091852135FD0E943812232F303490F152
:200EC0003F7081F11127E6E3FBE2E31BF10B1491011711F038E022C03A9501F5213911F43D
:200EE00030E91EC027FD1EC0F8940091992110919A2120918621309187210217130729F4B5
:200F000023E1E3D7789433270BC0009386211093872178940E948D1138E402C0207F322B37
:200F2000309385210F911F912F913F91EF91FF91FFBFFF911895FF93FFB7FF93EF933F932F
:200F40002F931F930F93E2E0F0E2019111912081222311F0011731F43091A30B3C7F3093A2
:200F6000A30B0CC003951127E7E4F0E2E00FF11F10811093A00BE2E0F0E200830F911F9145
:200F80002F913F91EF91FF91FFBFFF911895FF93FFB7FF93EF933F932F931F930F93E0E0B2
:200FA000F0E20191108113951F73212F2C5E2F73201741F421E02093A5062091052020685D
:200FC000209305203091A10B2091A00B34FD10C0011771F01083E7E0F0E20027E10FF01FA4
:200FE00020832D3029F4009105200395009305200F911F912F913F91EF91FF91FFBFFF9190
:2010000018950BEC0093520009E0009350001091510013FFFCCF02EC0093550009E1009359
:2010200050001091510014FFFCCF18ED04E0109334000093400008E1009350009FEF9DBF47
:201040009FE39EBF0BEF0093010603EF0093050608E10093120600E80093110600931306BB
:20106000009314060FE10093210600E10093250600E1009335060093360608E20093500629
:201080000093510600E0009353060093540608E2009371060093740600E10093660602E0EA
:2010A0000093650602E10093610600E00093750600E1009376060093770604E00093810669
:2010C00001E00093900600E00093910600E80093920600E0009393060AE000938A0601E0EF
:2010E00000938B0609E00093A10600E00093B1060093B4060093B50600E10093B606009321
:20110000B7060CE000934A0600E200936A0602E00093AA0600E30093AB0601E00093A506F3
:2011200003E20093850408E40093810401E00093840400E40093A7090CE00093A60903E076
:201140000093A50900ED0093A70B03E80093A60B03E00093A50B08E10093A40B00E1009328
:20116000A30B06E0009300080DE70093260800E00093270800E00093010800E000930408EE
:2011800001E00093060808E00093CC01992790B9E0E0F0E2C2EBD3E29193EC17FD07E1F785
:2011A0000091A80601FF9395909304200091880601FB002700F9009357212EF0019A01E0A1
:2011C0000093060609C001E000935B2100ED00935C2107E000935D2108EE00935E2103E0D7
:2011E00000935F2101E00093890602E00093A90603E00093A2004DD708E010E521D700E2C2
:2012000010E023E230D700E310E02EE12CD7E9E8F1E2C0E0D0E111E209910193EE3AF107B7
:20122000D9F70FEF009386210093872100919B210F70109124061079012B00932406789456
:20124000E6E9F9E20E94F51101E00093A60600910620002309F006D0009105200023B9F3EE
:2012600084D0F5CF0027F89400930620C3E9D1E228EFF0908906F3FC02C07894089552D6E3
:20128000789420E1F02EF69410F0229669C0F894F0908906F3FEF1CF45D678942331E1F020
:2012A00008F043C084E0013018073CF48CEF0030180764F400E01CEF02C000E014E0F89420
:2012C000F0908906F3FED9CF00D67894F89409931993059A789444C08EE2013E180710F033
:2012E00000EE1EE2F8944881598109931993809185219FED982371F404171507A1F00093CB
:2013000086211093872178940E948D1188648093852103C012F4106801C01064F090890665
:20132000F3FEABCFD2D578941BC0003110F4112349F011270F70F894F0908906F3FE9DCF63
:20134000C4D5789409932196F894F0908906F3FE94CF109124061079012B0093240678945D
:201360002395253109F08FCF08950F77009305200E940012013429F40E940012033461F5E6
:20138000C7C0033459F40E940012013409F452C40C3409F4EBC00035F9F4D4C00F3441F430
:2013A0000E9400120E3409F462C00634A9F4ADC0003541F40E940012013409F40CC106347D
:2013C00059F450C1023549F40E940012003509F4A9C2033509F46EC344C0033531F50E9480
:2013E0000012013409F4EEC4033409F4E7C4093409F458C40C3409F4DDC40D3409F47DC465
:20140000033509F4B0C4043551F4FAD7083409F4EAC20C3409F4EBC20D3419F58FC4063528
:2014200009F4C5C00735E9F4EFC4043599F4E8D7083439F4E5D7013409F4BDC2033489F44F
:20144000BEC20D3471F4DCD7013409F4ACC2033441F4ADC2073529F4D3D7023511F4E4C253
:20146000CFD70D30E9F7EEEBF9E2BFD7089541E00E9400120D30A9F70091AD21041709F499
:20148000BDC44093AD210091CF0107FDFACF06E30093CA0101E018EDF894109334000093D9
:2014A000CB0178940091CF0107FDFCCFC4E2D0E1488305E30093CA01C093C001D093C10183
:2014C00001E018EDF894109334000093CB0178940091CF0107FDFCCF4423B1F404E00093A5
:2014E00086060091572103FDFCCFF89401E000935B2100ED00935C2107E000935D21019882
:2015000001E400930506789479C44427B1CFA9CF0E9400120D30D9F7F894009185210062B6
:201520000093852178940E9400120B3119F00E949C12F9CFF894009185210F7D00938521CD
:2015400078945CC40E9400120D3081F592D408F408952227CDE9D1E2F8940E94920F78946C
:201560000993199323952730B9F748C449D70032E9F446D7402F44D70D30C1F4009162217C
:20158000413341F0403391F403FF38C4F8940AE0112705C003FD32C4F89402E018E000934E
:2015A000A9061093622185DA789428C45ACF28D70032E1F7F9D5D0F30D30C1F75AD408F41D
:2015C00008954093AB215093AC2127E18A01F8947CD4789413C433D048F30FD7E02F402F2B
:2015E0000CD7F02F502F09D7602F07D7302E05D7402E03D7502E6230CCF63E164F065606C4
:20160000A8F2F89460933B0070DB0027009389060093060804E00093860603E418ED1093AF
:2016200034000093A20006E20093CA0101E018ED109334000093CB0178940D948401E0D6F7
:201640000D3069F4E4E7FBE21591D7D6011739F4EC37D1F7EEECF9E2C8D68894089508941D
:201660000895FFCEECDFE8F302E00093660600E10093850600EB0093810600E50093C00A33
:201680000027AEEAB3E20D930D930D930C9322D11127B0D58901AED5A4D6AFD6C02FADD649
:2016A000D02FABD6E02FA9D6002EA7D6102EA5D6202EAE016E2F76D0102D212D322D01E00D
:2016C00006D7141B250B360B1F5F2F4F3F4F232B09F011278091AE239091AF23AEEAB1E284
:2016E000A80FB91F8AD60C93019691701A95B1F78093AE239093AF236AD025D020F05523DD
:20170000D9F665D0D8CF63D07ED074D5890172D568D6F89401E00093890602E00093A90692
:20172000002700934906009369060093C00A00EB00938206019801E00093050602E00093AE
:201740005B2178945BC335D002E0A8D08091B0239091B123AEEAB1E2A80FB91F0C910196BD
:2017600091700093C30A3091C20A37FFFCCF04161506260649F48093B0239093B12300E11E
:2017800000938506089408954F5F5F4F6F4F442309F78093B0239093B12300E10093850695
:2017A0008894089506D008ED79D000E100938506089500E10093860606E00093C30A3091B9
:2017C000C20A37FFFCCF00E100938506089580E496E00197F1F700E10093860605E00093CE
:2017E000C30A3091C20A37FFFCCF8093C30A3091C20A37FFFCCF8091C30A00E10093850643
:2018000080FDE5CF089500E10093860603E00093C30AAA243091C20A37FFFCCFE093C30A1B
:201820003091C20A37FFFCCFD093C30A3091C20A37FFFCCFC093C30A0FEF1FEF2FEF3FEFE4
:2018400077EB8DE191ECA4E06091C20A67FFFCCFA092C30A6091C20A67FFFCCF6091C30A1E
:201860000C161D062E0631F0A092C30A05D02196EA1DF0CF01D051C048E0220F331F001FD1
:20188000111F18F4669538F002C0669520F42727382709271A274A9581F7089510E1109372
:2018A00086060093C30A3091C20A37FFFCCF6093C30A3091C20A37FFFCCF5093C30A3091EF
:2018C000C20A37FFFCCF4093C30A3091C20A37FFFCCF089500E1009386060FE90093C30A18
:2018E00044273091C20A37FFFCCF4093C30A3091C20A37FFFCCF2091C30A4093C30A3091E2
:20190000C20A37FFFCCF3091C30A4093C30A4091C20A47FFFCCF0091C30A40E14093850641
:2019200008959FCD6DD50D30E1F7C3E9D1E20991199187D400E2CBD50991199182D400E24B
:20194000C6D5099119917DD400E2C1D5099119916CD400E2BCD5099111274CD442D5219628
:20196000099119916ED400E2B2D50991199169D400E2ADD50991199168D400E2A8D509911A
:20198000199163D400E2A3D5099119915ED400E29ED50991199159D400E299D509911127AE
:2019A00029D41FD52BC2C1EAD1E222E00BC0C3EAD1E223E007C0C5EAD1E224E003C0C7EA1A
:2019C000D1E225E01DD5003271F5B2D360F10D3051F54FD208F40895499359938A01F894D3
:2019E00074D278940BC2CFE9D1E221E003C0CDE9D1E220E005D50032B1F49AD3A0F00D3045
:201A000091F41EEF4030510774F012E04030510754F42FD208F40895499359938A01F8948D
:201A200054D27894EBC11DCDEBD40D30E1F70091CF0107FDFCCF06E30093CA0101E018EDAD
:201A4000F894109334000093CB017894E9E8F1E2CFEFDFE041E20091CF0107FDFCCF3327EA
:201A6000219601911881102711F0088331E0EE3AF40731F02C2F2F712F3191F703D0F0CFF7
:201A800001D0BCC13323A1F005E30093CA01C093C001D093C10101E018EDF8941093340049
:201AA0000093CB0178940091CF0107FDFCCF33270895D7CCA5D40D30E1F7E4E5FBE295D454
:201AC0000091AB211091AC2195D3E0E6FBE28DD4ECE7FBE225913591059115918BD389017F
:201AE00089D3ECEDF9E281D4F894209157210091602110916121409188067894EEECF9E277
:201B000020FD02C0E4EDF9E270D4322FE6EFF9E26CD48FD3E4E0FAE2367051F0E8E1FAE217
:201B2000363031F0E2E1FAE2347011F4ECE0FAE25CD4E2E2FAE259D442FD04C0E8E3FAE287
:201B400054D40895E2E3FAE250D4EEECF9E223FD05C0E4EDF9E249D426FF089546D4EEE5E9
:201B6000FAE243D430916221ECE6FAE231FD0BC0E4E7FAE232FD07C0EEE7FAE233FF03C044
:201B800034D4E8E8FAE231D4E2E9FAE22ED4EAE9FAE230FF02C0EEE9FAE227D4EAEBFAE2E4
:201BA00024FD03C0E8EAFAE2CBCF40915821E0EDFAE21BD4E2EEFAE242FD02C0E8E3FAE2C3
:201BC00014D4EAEEFAE211D4E8E3FAE240FD02C00CD40AC0E2E3FAE208D4E4EFFAE241FFC8
:201BE00002C0E2E0FBE201D4E0E1FBE2FED3E9E8F1E20281CBD30EE26AD40381C7D30EE23F
:201C000066D40081C3D30EE262D40181BFD3EEE1FBE2EBD3E3E9F1E2029112910E94FA104E
:201C2000ED3819F00AE353D4F7CFEAEBF9E2DDD3089517CCE5D30D30E1F7F894009157215A
:201C400010B1137049F4009158210D7F009358217894EEE3FAE223C00770013021F0789400
:201C6000E4EDF9E21CC0F894009157210F710093572100270093582101E000935B2104E0B5
:201C80000093860600ED00935C2107E000935D21019801E4009305067894EEECF9E2A5D3DB
:201CA0000895DFCBADD30032E1F742D2D0F35523C1F70E32B1F7042E3BD298F3552389F7A2
:201CC0000E3279F7142E34D260F3552351F70E3241F7242E2DD228F3552319F70D3009F750
:201CE000C8D008F40895E9E8F1E22192419301921082F89448D1789481C082D3003289F66B
:201D000053D278F20A3369F60A014ED2B0F00A3341F61A0149D228F20D3079F4AAD008F4E9
:201D20000895EDE8F1E2519341933192219211920192F89428D1789461C093CB61D3003284
:201D4000E1F732D2D0F30D30C1F75523B1F791D008F408954093A921042F26E01127F8943B
:201D6000B4D078944BC04CD3003219F549D3003300F10A3328F00134E0F00734D0F4075079
:201D80000053402F3DD30D30A1F473D008F4089540939B21042FF894109124061079412BB5
:201DA00040932406789424E11127F8948ED0789425C057CBC7E9D1E222E107C0C5E9D1E252
:201DC00021E103C0C3E9D1E220E11AD30032D1F4AFD1C0F00D301CEF403051079CF014E03A
:201DE000413051077CF471F444D008F40895F89449935993059A8A0168D07894EEECF9E221
:201E0000F4D208952ECB2DCBFBD20032D9F790D1C8F30D30B9F72DD008F408951EE2413E81
:201E2000510788F7C9E9D1E2F8940881198104171507E9F0488359838A01209185212223D9
:201E400049F062F4106823E140D07894E8E3FBE2CCD208954093862150938721106423E1FB
:201E600034D07894152F59D208E4009385217894C5CF88940091572104FD0895E8EAFAE2AD
:201E8000B4D2089408951127249F07FC1394012D349F000D111D5203000D111D5303100D9F
:201EA00008951127249F07FC1394012D349F000D111D259F000D111D359F112019F4100D76
:201EC00008F008950FEF1FEF08952F935F936F9361ED6093C008552726955795269557953B
:201EE00061E0609366062093C3086091C20867FFFCCF5093C3086091C20867FFFCCF10939B
:201F0000C3086091C20867FFFCCF0093C3086091C20867FFFCCF61E0609365066F915F9131
:201F20002F9108952F935F936F9361ED6093C00861E026955795269557952068609366060F
:201F40002093C3086091C20867FFFCCF5093C3086091C20867FFFCCF1093C3086091C20854
:201F600067FFFCCF1091C3080093C3086091C20867FFFCCF0091C30861E0609365066F917F
:201F80005F912F9108952F935F936F93C9E8D1E261ED6093C0082CE3552761E060936606A6
:201FA0002093C3086091C20867FFFCCF5093C3086091C20867FFFCCF29912093C3086091F4
:201FC000C20867FFFCCFC339B9F761E0609365066F915F912F9108952F935F936F93EF9336
:201FE000FF93ECE7FBE261ED6093C0082DE350E461E0609366062093C3086091C20867FF13
:20200000FCCF5093C3086091C20867FFFCCF259155915093C3086091C20867FFFCCF209372
:20202000C3086091C20867FFFCCFE03881F761E060936506FF91EF916F915F912F9108955D
:202040000F931F932F933F9320E120930606312F2FD0032F2DD020E1209305063F912F91FB
:202060001F910F9108950F931F932F9340E140930606412F522F1CD0052F1AD0502F042FB0
:2020800017D0402F20E1209305062F911F910F91089500E1009306060FEF0AD00FEF08D050
:2020A0000FEF06D00FEF04D000E100930506089528E018E007FD1093050607FF10930606F7
:2020C00012E010930606000F0000109305061091080612FB00F92A9561F708956F931F9385
:2020E0002F931F920F9222271AE033274427552787D1239500338CF00A337CF4602F60539A
:20210000419F060E6627161E652F512D402D169F112039F4500D60F704C0213011F0889492
:2021200001C008940F901F902F911F916F9108956F931F932F933F931F920F9222271AE00A
:202140003327442755275CD1222329F40D3219F433952395F8CF239500338CF00A337CF408
:20216000602F6053419F060E6627161E652F512D402D169F112081F4500D28F70DC02130F4
:2021800059F0332339F0223039F033274195531F519512F4889401C008940F901F903F91D7
:2021A0002F911F916F9108956F932F9322274427552726D1602F0033A8F00A3328F0013443
:2021C00088F0073478F467506053440F551F440F551F440F551F440F551F462B23952430DD
:2021E00041F70ED1222311F0889401C008942F916F9108950F931F932F93202F1295012F70
:202200000DD01295012F0AD02295022F07D02295022F04D02F911F910F9108950F70005D2C
:202220000A3308F0095F53D108954F9342E008940FC04F9341E008940BC04F9343E00894C6
:2022400007C04F934427089403C04F9344278894EF92FF920F931F932F933F939F93EF93F4
:20226000FF93FF2440F4F39411232AF4F194019508F413951195E6E5F1E2332730832DE07F
:20228000EE24105AE0FE10F0089402C010568894001F111FEE1C2A95A1F7212FE7942795CD
:2022A0001F7122952F70205D22933395431711F42EE22293112319F7002309F7431764F005
:2022C00020E3229349F03395341711F02293FBCF2EE2229320E3229310E5442309F01A95F9
:2022E00000E2FF2029F00AF40DE2029300E21A95E11711F00293FCCF31960191002311F0DB
:20230000E6D0FBCFFF91EF919F913F912F911F910F91FF90EF904F910895EF920F931F93BD
:202320002F933F934F939F93EF93FF93EFE4F1E22DE0208333272DE0EE24105AE0FE10F0CA
:20234000089402C010568894001F111FEE1C2A95A1F7212FE79427951F7122952F70205D03
:2023600022933395112339F7002329F703E502930191E2D00D30E1F7FF91EF919F914F9143
:202380003F912F911F910F91EF900895EF920F932F93EF93FF93E6E5F1E2EE24E08225E031
:2023A000EE24005AE0FE10F0089402C000568894001FEE1C2A95A9F7202FE79427950F7175
:2023C00022952F70205D2293002349F70191002311F07DD0FBCFFF91EF912F910F91EF9056
:2023E0000895EAEBF9E201D008950F930591002311F06DD0FBCF0F9108953F9331E002C0DD
:202400003F9333271F932F934F93EF93FF93E0E0F0E2F8941081018178940117D1F3139565
:202420001F734091A40640FF07C0212F2C5E2F73021341E04093A6062227E7E0F0E2E10F86
:20244000F21F2081109300202D3029F4109105201A951093052020361CF011F030FF2F751A
:20246000022FFF91EF914F912F911F913F910895FF93EF934F933F932F931F93E2E0F0E28E
:2024800011912191121769F023951217C9F0E7E4F0E21127E20FF11F0083E3E0F0E220833B
:2024A0000FC023953081332391F34091A10B45FFEECF0093A00B4091A30B42604093A30BAC
:2024C0001F912F913F914F91EF91FF910895FF93EF934F933F932F931F93E2E0F0E2F894D3
:2024E00011912191121789F02395121719F478943297F5CFE7E4F0E21127E20FF11F008306
:20250000E3E0F0E22083789410C023953081332389F34091A10B45FFEDCF0093A00B4091E0
:20252000A30B42604093A30B78941F912F913F914F91EF91FF910895FF93EF934F932F9339
:202540001F93E3E8F1E2F89411912191121791F023952F70121719F478943297F4CFE3E7B2
:20256000F1E21127E20FF11F0083E4E8F1E2208378940EC023952F704091A10945FFEFCFDC
:202580000093A0094091A30941604093A30978941F912F914F91EF91FF9108950004040D44
:2025A0001103141529031701220145014B015301590166016F017401830189018C018F01C0
:2025C00094019A01A001A901BD01CD01B301D701DD01E501EB01F60107020D021302200272
:2025E00026022C0235023B0241024A02500256025F0265026B02030285028B029102060CE5
:202600001E401FC020C021C022C0230024062506260627062863290C2A232D002E002F145E
:2026200030A2310032C4330734103500360E3700380039003A003B013C003D003E003F1086
:202640004000411E420043004400450046014700480049004A104B004C1E4D004E004F00B5
:202660005000510152005300540055105600571E580059005A005B005C015D005E005F00B2
:202680006100621E63006400650066006701680069006A806D046EC0710472C0750476C0AF
:2026A0007700780079007AC07B007C007D007E007F00800081008200830084008500860072
:2026C0008700880089008A008B008C008D008E008F009000980099009A009B009C009D00E8
:2026E0009E009F00A000A100A200A300A400A500A600A700A800A900AA00AB00AC00AD0082
:20270000AE00AF00B000B100B200B300B400B500B600B700B800B900BA00BB00BC00BD0061
:20272000BE00BF00C000C100C200C300C400C500C600C700C800C900CA00CB00CC00CD0041
:20274000CE00CF00D000D100D200D300D400D500D600D700D800D900FF011F00200021012E
:20276000220023002490253126002700280129002A002B002F00300031013200330034905C
:20278000353136003700380139003A003B003F004000410142004300449045314600470062
:2027A000480149004A004B004F0050005100520053005490553156005700580159005A003A
:2027C0005B00FF00060C1E401FC020E321E322C0230024062500260027062863290C2A2395
:2027E0002D002E002F14309D311032C533073410350036043700380039003A003B013C00EF
:202800003D003E003F1040004100420043004400450046014700480049004A104B004C004F
:202820004D004E004F005000510052005300540055105600571C580059005A005B005C0123
:202840005D005E005F006100621C63006400650066006701680069006A806B006C006D0086
:202860006EC06F007000710072C073007480750076C07700780079007AC07B007C007D0080
:202880007E007F0080008100820083008400850086008700880089008A008B008C008D00E0
:2028A0008E008F009000980099009A009B009C009D009E009F00A000A100A200A300A40065
:2028C000A500A600A700A800A900AA00AB00AC00AD00AE00AF00B000B100B200B300B40030
:2028E000B500B600B700B800B900BA00BB00BC00BD00BE00BF00C000C100C200C300C40010
:20290000C500C600C700C800C900CA00CB00CC00CD00CE00CF00D000D100D200D300D400EF
:20292000D500D600D700D800D900FF011F002000210122002300249025312600270028013E
:2029400029002A002B002F0030003101320033003490353136003700380139003A003B0085
:202960003F0040004101420043004490453146004700480149004A004B004F005000510023
:20298000520053005490553156005700580159005A005B00FF000D0A494E522054434D20F1
:2029A000636F6E74726F6C20696E746572666163652072656164790D0A000D0A0000537916
:2029C0006E746178206572726F720D0A00004F4B0D0A00004641494C0D0A00000D0A457823
:2029E0007465726E616C20706F77657220736F757263653A200054656D70657261747572D0
:202A000065200000204E4F524D414C00204C4F5700002048494748002043524954494341D7
:202A20004C000D0A426F61726420706F7765722000004F4E2C2000004F46460D0A004E6F46
:202A400020616C61726D2C206572726F7220666C61677320636C65617265640D0A00436CF0
:202A60006F636B20736F7572636520005052494D415259005345434F4E4441525900494EE5
:202A80005445524E414C00002028466F7263656429002C20504C4C2000004E4F54204C4FAC
:202AA000434B45440D0A000046504741206E6F742072656164790D0A00004650474120725D
:202AC000656164790D0A00004572726F720D0A0049502042757320696E7465726661636567
:202AE00020004F4E2C200D0A0000474254206C696E6B2000206E6F206572726F72730D0A1A
:202B00000000205258206572726F72730D0A0000495020616464726573733A2000000D0A07
:202B20004D414320616464726573733A2000446F6E650D0A0D0A0000417474656E7561746A
:202B40006F72206E6F7420636F6E6E65637465640D0A0000426F61726420532F4E3A200007
:202B600020466C6173682054696D657374616D703A2000007856341298BADCFE5E26AB7A30
:00000001FF
