:20000000FFFFFFFFFFFFFFFFFFFFFFFFFFFFFFFFFFFFFFFFFFFFFFFFFFFFFFFFFFFFFFFF00
:20002000FFFFFFFFFFFFFFFFFFFFFFFFFFFFFFFFFFFFFFFFFFFFFFFFFFFFFFFFFFFFFFFFE0
:20004000FFFFFFFFFFFFFFFFFFFFFFFFFFFFFFFFFFFFFFFFFFFFFFFFFFFFFFFFFFFFFFFFC0
:20006000FFFFFFFFFFFFFFFFFFFFFFFFFFFFFFFFFFFFFFFFFFFFFFFFFFFFFFFFFFFFFFFFA0
:20008000FFFFFFFFFFFFFFFFFFFFFFFFFFFFFFFFFFFFFFFFFFFFFFFFFFFFFFFFFFFFFFFF80
:2000A000FFFFFFFFFFFFFFFFFFFFFFFFFFFFFFFFFFFFFFFFFFFFFFFFFFFFFFFFFFFFFFFF60
:2000C000FFFFFFFFFFFFFFFFFFFFFFFFFFFFFFFFFFFFFFFFFFFFFFFFFFFFFFFFFFFFFFFF40
:2000E000FFFFFFFFFFFFFFFFFFFFFFFFFFFFFFFFFFFFFFFFFFFFFFFFFFFFFFFFFFFFFFFF20
:20010000FFFFFFFFFFFFFFFFFFFFFFFFFFFFFFFFFFFFFFFFFFFFFFFFFFFFFFFFFFFFFFFFFF
:20012000FFFFFFFFFFFFFFFFFFFFFFFFFFFFFFFFFFFFFFFFFFFFFFFFFFFFFFFFFFFFFFFFDF
:20014000FFFFFFFFFFFFFFFFFFFFFFFFFFFFFFFFFFFFFFFFFFFFFFFFFFFFFFFFFFFFFFFFBF
:20016000FFFFFFFFFFFFFFFFFFFFFFFFFFFFFFFFFFFFFFFFFFFFFFFFFFFFFFFFFFFFFFFF9F
:20018000FFFFFFFFFFFFFFFFFFFFFFFFFFFFFFFFFFFFFFFFFFFFFFFFFFFFFFFFFFFFFFFF7F
:2001A0007FC0FFFFFFFFFFFFFFFFFFFFFFFFFFFFFFFFFFFFFFFFFFFFFFFFFFFFFFFFFFFF1E
:2001C000FFFFFFFFFFFFFFFFFFFFFFFFFFFFFFFFFFFFFFFFFFFFFFFFFFFFFFFF2EC0FFFF4F
:2001E00000C0FF93FFB7FF93EF933F932F931F930F93E2E0F0E2019111912081222311F04C
:20020000011731F43091A30B3C7F3093A30B0CC003951127E7E4F0E2E00FF11F108110939A
:20022000A00BE2E0F0E200830F911F912F913F91EF91FF91FFBFFF911895FF93FFB7FF9337
:20024000EF933F932F931F930F93E0E0F0E20191108113951F73212F2C5E2F73201741F45D
:2002600021E02093A506209105202068209305203091A10B2091A00B34FD09C0011739F0E5
:200280001083E7E0F0E20027E10FF01F20830F911F912F913F91EF91FF91FFBFFF9118957E
:2002A000FF93FFB7FF93EF93DF932F931F930F93E4E0F0E2DD270091A80601FD1BC0D39540
:2002C000129102910117A9F02091A10B25FF0CC011270395E7E4F0E2E00FF11F108110934A
:2002E000A00BE2E0F0E200832091A30B22602093A30B3296D0830F911F912F91DF91EF91DF
:20030000FF91FFBFFF9118957894A32DB42DC52D01E0B4D060903B00AE1BBF0BC609AF5FA3
:20032000BF4FCF4FCC2311F4B23010F0AA27B2E0CEEAD1E27AD009931197E1F7CEEAD1E21C
:200340004AD003E20093CA0107C0F89560903B00E315F405650448F409901990F0FFF5CF36
:20036000EE3F99F7E8953CD0D0CF3AD034D04093C0015093C1016093C2013092C401409242
:20038000C5015092C6010AE30093CA0101E018EDF894109334000093CB0178941CD0009172
:2003A000C601112727D00091C4011091C50122D00DE064D00AE062D03091A30B3370E1F771
:2003C000F89401E00093480001E018ED109334000093790088950091CF0107FDFCCF089522
:2003E00005E20093CA010DE9F89400933400F895789408950F931F932F93202F1295012FFD
:200400000DD01295012F0AD02295022F07D02295022F04D02F911F910F9108950F70005D4A
:200420000A3308F0095F2AD008951F932F934F93EF93FF93E0E0F0E2F894108101817894E1
:200440000117D1F313951F734091A40640FF07C0212F2C5E2F73021341E04093A60622278B
:20046000E7E0F0E2E10FF21F208110930020022FFF91EF914F912F911F910895FF93EF933C
:200480004F933F932F931F93E2E0F0E2F89411912191121789F02395121719F4789432975B
:2004A000F5CFE7E4F0E21127E20FF11F0083E3E0F0E22083789410C023953081332389F3D0
:2004C0004091A10B45FFEDCF0093A00B4091A30B42604093A30B78941F912F913F914F9193
:0604E000EF91FF91089569
:00000001FF
